:1000000024C048C047C046C045C0F8C043C042C035
:1000100041C040C03DC13EC03DC03CC03BC00102EC
:100020000000040000000000000000003800000094
:100030000000370002020202020202020202010272
:100040000408102020041008070211241FBECFE569
:10005000D2E0DEBFCDBF10E0A0E6B0E0EEEAF5E012
:1000600002C005900D92A036B107D9F720E0A0E6B6
:10007000B0E001C01D92A137B207E1F710E0C5E280
:10008000D0E003C02197FE018AD2C432D107D1F754
:1000900040D18BC2B5CF80936E0090916C009923B4
:1000A000D1F0682F70E080E090E028EE33E040E08F
:1000B00050E0D1D1B901CA0124EB30E040E050E07A
:1000C000AED1DA01C90188519C4FAF4FBF4F909319
:1000D000700080936F00089590E0FC01E25EFF4F96
:1000E0003491FC01E25CFF4F2491FC01EC5CFF4F7A
:1000F000E491EE2339F1332399F0323071F028F492
:10010000313071F48AB58F770AC0333011F0343052
:1001100039F48CB58F7D8CBD03C08AB58F7D8ABDC7
:10012000F0E0EE0FFF1FE85DFF4FA591B4918FB790
:10013000F894EC91611103C020952E2301C02E2B61
:100140002C938FBF08953FB7F894809166009091EB
:100150006700A0916800B091690022B708B601FE5F
:1001600005C02F3F19F00196A11DB11D3FBFBA2F49
:10017000A92F982F8827820F911DA11DB11DBC01A9
:10018000CD0143E0660F771F881F991F4A95D1F76D
:1001900008958F929F92AF92BF92CF92DF92EF928B
:1001A000FF92D1DF4B015C018FE0C82ED12CE12CF6
:1001B000F12CC9DFDC01CB0188199909AA09BB0917
:1001C000883E9340A105B10558F021E0C21AD1083C
:1001D000E108F10888EE880E83E0981EA11CB11C8E
:1001E000C114D104E104F10421F7FF90EF90DF90F6
:1001F000CF90BF90AF909F908F9008951F920F92D5
:100200000FB60F9211242F933F938F939F93AF9329
:10021000BF938091620090916300A0916400B091BF
:1002200065003091610026E0230F2D3720F40296FF
:10023000A11DB11D05C029E8230F0396A11DB11D05
:10024000209361008093620090936300A093640008
:10025000B09365008091660090916700A09168005E
:10026000B09169000196A11DB11D80936600909325
:100270006700A0936800B0936900BF91AF919F9110
:100280008F913F912F910F900FBE0F901F90189557
:100290001F920F920FB60F9211242F933F934F93FB
:1002A0005F936F937F938F939F93AF93BF93EF93DE
:1002B000FF93809160008E5F80936000809160006A
:1002C0008431B0F01092600061E080916D0004DF35
:1002D00080916F00909170008330910528F0880F15
:1002E000991F04970197F1F760E080916D00F4DEAB
:1002F000FF91EF91BF91AF919F918F917F916F91FE
:100300005F914F913F912F910F900FBE0F901F90D3
:10031000189578948AB582608ABD8AB581608ABD55
:1003200083B7826083BF83B7816083BF89B78260F0
:1003300089BF80B7826080BF80B7816080BF8CB585
:1003400080648CBD329A319A3098379A8CB580642B
:100350008CBD8FEA89BD89B7806189BF83E08093B6
:100360006D008AE580936E0081E080936C00E1E48B
:10037000F0E02491E7E3F0E08491882399F090E0A5
:10038000880F991FFC01E25DFF4FA591B491FC011C
:10039000E85DFF4F859194918FB7F894EC91E22B33
:1003A000EC938FBF8AE577DEF4DE00E010E084EBAB
:1003B000E82EF12C10926B0010926A00C0916A0036
:1003C000D0916B00C53BD1054CF48C2F64DEE1DE8F
:1003D0002196D0936B00C0936A00F0CFF0926B002F
:1003E000E0926A00C0916A00D0916B00D7FD09C00D
:1003F0008C2F51DECEDE2197D0936B00C0936A0024
:10040000F1CFC7DE01151105A9F2FADDD3CFECE675
:10041000F0E010828FEF81838AE582830895052EB4
:1004200097FB16F400940FD057FD05D068D007FC59
:1004300002D046F408C050954095309521953F4F25
:100440004F4F5F4F089590958095709561957F4FC0
:100450008F4F9F4F089568940013E894A0E0B0E098
:10046000E3E3F2E01DC0EFEFE7F959016A015E2313
:10047000550FEE08FE2C87019B01AC019E23990FBE
:10048000660B762FCB015DD0CDB7DEB7EAE024C096
:100490002F923F924F925F926F927F928F929F9294
:1004A000AF92BF92CF92DF92EF92FF920F931F9382
:1004B000CF93DF93CDB7DEB7CA1BDB0B0FB6F89433
:1004C000DEBF0FBECDBF09942A88398848885F8473
:1004D0006E847D848C849B84AA84B984C884DF80E4
:1004E000EE80FD800C811B81AA81B981CE0FD11DC8
:1004F0000FB6F894DEBF0FBECDBFED010895A1E2A7
:100500001A2EAA1BBB1BFD010DC0AA1FBB1FEE1F8D
:10051000FF1FA217B307E407F50720F0A21BB30BD8
:10052000E40BF50B661F771F881F991F1A9469F754
:1005300060957095809590959B01AC01BD01CF01B0
:100540000895DF93CF939F92A0E49A2E0024D001C8
:10055000E001F00116950795F794E794D794C794B6
:10056000B794A79448F41068A20FB31FC41FD51FF7
:10057000E61FF71F081E191E220F331F441F551FA9
:10058000661F771F881F991F9A9421F79D01AE015E
:10059000BF01C00111249F90CF91DF910895EE0F0C
:0E05A000FF1F0590F491E02D0994F894FFCF11
:00000001FF
